:100000000C9434000C9446000C9446000C9446006A
:100010000C9446000C9446000C9446000C94460048
:100020000C9446000C9446000C9446000C94460038
:100030000C9446000C9446000C9446000C94460028
:100040000C9448000C9446000C9446000C94460016
:100050000C9446000C9446000C9446000C94460008
:100060000C9446000C94460011241FBECFEFD8E03C
:10007000DEBFCDBF21E0A0E0B1E001C01D92A03005
:10008000B207E1F70E945A000C9493000C94000010
:100090001F920F920FB60F9211248F939F9395B1D9
:1000A00080E1892785B99F918F910F900FBE0F90A6
:1000B0001F9018958FEF84B987B98AB938983A9804
:1000C0003B983D980E947300789490E285B189270F
:1000D00085B92FEF31EE84E0215030408040E1F7C8
:1000E00000C00000F3CF80E487BD84B5806884BD84
:1000F00084B58F7B84BD84B5886084BD84B58260FF
:1001000084BD84B5816084BD85B5846085BD85B5B9
:100110008D7F85BD85B58E7F85BDEEE6F0E0808163
:0A012000816080830895F894FFCFFA
:00000001FF
