:100000000C9434000C9446000C9446000C9446006A
:100010000C9446000C9446000C9446000C94460048
:100020000C9446000C9446000C9446000C94460038
:100030000C9446000C9446000C9446000C94460028
:100040000C9497000C9446000C9446000C944600C7
:100050000C9446000C94A9000C9446000C944600A5
:100060000C9446000C94460011241FBECFEFD8E03C
:10007000DEBFCDBF21E0A0E0B1E001C01D92A23102
:10008000B207E1F70E9458000C94D3000C940000D2
:1000900060E070E0CB01089560E070E0CB0108956E
:1000A00060E070E0CB01089560E070E0CB0108955E
:1000B0008FEF84B987B98AB938983A983B983D98B8
:1000C0000E94B3007894C0E280910001843011F561
:1000D000F8941092000182E091E00E94480082E0D2
:1000E00091E00E944C0020910A0130910B01409157
:1000F0000C0150910D0160910E0170910F018091E2
:100100001001909111010E94540060E080E00E9473
:100110005000789485B18C2785B92FEF81EE94E05B
:10012000215080409040E1F700C00000CDCF1F92E9
:100130000F920FB60F9211248F939F9395B180E188
:10014000892785B99F918F910F900FBE0F901F90B7
:1001500018951F920F920FB60F9211240F900FBE99
:100160000F901F90189580E487BD84B5806884BD8A
:1001700084B58F7B84BD84B5886084BD84B582607E
:1001800084BD84B5816084BD85B5846085BD85B539
:100190008D7F85BD85B58E7F85BDEEE6F0E08081E3
:0A01A000816080830895F894FFCF7A
:00000001FF
