:100000000C94B5000C94D2000C94D2000C94D20045
:100010000C94D2000C94D2000C94D2000C94640482
:100020000C9490040C94D2000C94D2000C94D20046
:100030000C94D2000C94D2000C94D2000C94D200F8
:100040000C94D2000C94D2000C9431040C94D20085
:100050000C94D2000C94BE040C94D2000C94D200E8
:100060000C94D2000C94D2006E616E00696E660032
:1000700000407A10F35A00A0724E18090010A5D45F
:10008000E80000E87648170000E40B54020000CABC
:100090009A3B000000E1F505000080969800000002
:1000A00040420F000000A086010000001027000061
:1000B0000000E803000000006400000000000A00E7
:1000C000000000000100000000002C76D888DC67EA
:1000D0004F0823DFC1DFAE59E1B1B796E5E3E45342
:1000E000C63AE651997696E8E6C28426EB898C9B5F
:1000F00062ED407C6FFCEFBC9C9F40F2BAA56FA5FF
:10010000F490055A2AF75C936B6CF9676DC11BFC80
:10011000E0E40D47FEF520E6B500D0ED902E03009B
:10012000943577050080841E080000204E0A0000E8
:1001300000C80C333333330F986E12831141EF8DA7
:100140002114893BE65516CFFEE6DB18D1844B38E7
:100150001BF77C1D901DA4BBE424203284725E2218
:100160008100C9F124ECA1E53D2711241FBECFEF8A
:10017000D8E0DEBFCDBF12E0A0E0B1E0E0E2F8E100
:1001800002C005900D92A837B107D9F722E0A8E781
:10019000B2E001C01D92A43BB207E1F70E948A01C0
:1001A0000C940E0C0C940000ECE7F0E080818F774B
:1001B000808380818064808380818F7D8083808143
:1001C000877F808380818B7F808380818D7F808308
:1001D00080818E7F808310927C02EAE7F0E080814C
:1001E0008068808380818860808380818460808350
:1001F000808182608083808181608083808180644F
:1002000080830895BC0180E090E00E94BA0520E060
:1002100030E040EA50E40E94480620E030E040E848
:100220005AE30E944806089526E636E646E250E480
:100230000E94480608952AE939E949E15EE30E94EF
:10024000190508958F929F92AF92BF92EF920F93EC
:100250000E9448064B015C01602F70E080E090E056
:100260000E94BC059B01AC01C501B4010E94480677
:100270004B015C016E2D70E080E090E00E94BC05B7
:100280009B01AC01C501B4010E9419050F91EF90CB
:10029000BF90AF909F908F900895A1ECB0E02C910B
:1002A00028602C932C9120612C932C9120682C9306
:1002B000E2ECF0E020812F77208320812F7B2083C8
:1002C00020812F7D208320812F7E20832081277F06
:1002D00020832C912B7F2C93208126602083909368
:1002E000C5008093C4000895E0ECF0E0908195FF94
:1002F000FDCF8093C6000895CF93C82F8A3019F49C
:100300008DE00E9474018C2F0E94740180E090E0C7
:10031000CF910895CF93DF93CDB7DEB762970FB635
:10032000F894DEBF0FBECDBF8FEF84B987B98AB90D
:1003300038983D980E9405050E94D40080E091E025
:100340009093B1028093B00287E690E00E944D0145
:1003500078940F2EFEE52F2EF2E03F2EF02D8091A7
:100360007802882309F46FC2A8E8B2E08C918B3739
:1003700009F059C280918902823209F054C28091F9
:100380008A02833309F04FC280918B02823209F0D6
:100390004AC280918C028A3309F045C2712C00E078
:1003A00010E0A5E0B0E044E050E0E2E0F0E061E021
:1003B00070E0412C512C912CBE83AD83CA0104976F
:1003C0009C0128573D4FD9012C91213709F05DC080
:1003D0009B0128573D4FD9012C91223209F055C07D
:1003E0009F0128573D4FD9012C912A3309F04DC068
:1003F0009A0129573D4FD9012C91223209F045C06D
:100400002D813E81D901A857BD4FFC90B2E2FB126D
:100410000AC09A0128573D4FD9011C91092D792C0A
:100420005524539432C07A01B2E0EB0EF11CD7018F
:10043000A857BD4FDC90B2E2DB120DC08A0108570D
:100440001D4FD8010C9128573D4FD9011C91792C93
:10045000552453941AC0DA01A557BD4FDC90B2E27F
:10046000DB1211C08A0108571D4FD8017C90285714
:100470003D4FD9010C91970128573D4FD9011C914F
:100480005524539402C05524539488579D4FDC0142
:100490008C918237F9F4CB0188579D4FDC018C9108
:1004A0008232C1F4CF0188579D4FDC018C918A3391
:1004B00089F4CA0188579D4FDC018C91853651F42F
:1004C0008D819E8188579D4FDC018C91873711F477
:1004D000442443946F5F7F4F31964F5F5F4F8D8110
:1004E0009E8101969E838D834A32510509F066CF25
:1004F000872C912C90E3891A9108C02ED12CA0E36F
:10050000CA1AD108A12EB12CB0E3AB1AB108872DBD
:100510000E947401802F0E947401812F0E94740137
:100520008DE00E947401552009F471C084E6889D15
:10053000B001899D700D1124C601880F991F880F85
:10054000991F880F991F9601220F331F820F931F47
:10055000680F791F6A0D7B1D6F3F710551F485E8A7
:100560008093100183E480930F0182E280930E0157
:100570004EC06115710549F488EC8093100184E642
:1005800080930F0110920E0142C0CB010197813B75
:10059000910578F588EC8093100184E680930F0133
:1005A0001091100180E090E00E94BA052AE939E933
:1005B00049E95EE30E94480669837A838B839C83C2
:1005C000612F70E080E090E00E94BC059B01AC01CF
:1005D00069817A818B819C810E94480620E030E00D
:1005E00048E453E40E9419050E948B0560930E01B4
:1005F0000EC0625B71096D34710548F080E580932F
:10060000100188E280930F0184E180930E018091B4
:100610008402909185020E9402010E941401162F0B
:10062000F72E782E692E80918102909182020E948D
:1006300002010E941B0169877A878B879C87E09063
:100640000F0100910E0120E030E040E05FE3612FF8
:100650007F2D872D962D0E9422016D877E878F87A3
:10066000988BE0918A02E98360910E01009110015C
:10067000F8EC6F9FB0011124072E000C880B990B2A
:100680000E94BC056D837E838F839887602F70E006
:1006900080E090E00E94BC052AE939E949E95EE37F
:1006A0000E9448069B01AC016D817E818F819885F7
:1006B0000E9419050E948B05062F6091100170E0C1
:1006C00080E090E00E94BC0520E030E040E05FE385
:1006D0000E9448069B01AC0160E070E080E89FE367
:1006E0000E94190520E030E04AE754E40E944806E1
:1006F0006D83798B8A8BE92E8BE790E00E94A90BA2
:10070000898180531F928F9386E891E09F938F9306
:100710000E94930B8BE790E00E94A90B0F900F9023
:100720000F900F905520A1F01F920F93BF92AF92A0
:10073000DF92CF929F928F92ECE8F1E0FF93EF93DC
:100740000E94930B0FB6F894DEBF0FBECDBF13C04F
:100750001F920F931F921F921F921F921F921F9220
:10076000ACE8B1E0BF93AF930E94930B0FB6F8943F
:10077000DEBF0FBECDBF6F927F92FF921F939C850D
:100780009F93AB85AF93BA85BF93E985EF93EF92C3
:10079000FA89FF9329892F938D818F9398899F934D
:1007A000AF85AF93BE85BF93ED85EF9381EC91E06C
:1007B0009F938F930E94930B0FB6F894DEBF0FBEEA
:1007C000CDBF411011C08CE092E09F938F930E94A7
:1007D000930BE8E1F2E0FF93EF930E94930B0F90ED
:1007E0000F900F900F9010C082E592E09F938F932F
:1007F0000E94930BEBE3F2E0FF93EF930E94930BC5
:100800000F900F900F900F908DE790E00E94A90B32
:100810008DE790E00E94A90B8AE090E00E94A90B6E
:100820001092780210C080918A0290E0C0979F9346
:100830008F933F922F920E94930B109278020F9009
:100840000F900F900F9095B180E2892785B98FEFB7
:1008500091EEA4E081509040A040E1F700C000007C
:100860007ECD1F920F920FB60F9211248F93EF93AC
:10087000FF9380917902853271F0E0917902F0E086
:100880008091C600E857FD4F8083809179028F5F89
:100890008093790211C080917902853269F4E091E8
:1008A0007902F0E08091C600E857FD4F808381E037
:1008B0008093780210927902FF91EF918F910F90BF
:1008C0000FBE0F901F9018951F920F920FB60F92A8
:1008D00011248F939F9390917B0280917A029813B9
:1008E00003C02B985E9A15C090917B0280910F01F6
:1008F000981303C05E982B9A0CC090917B02809154
:100900001001981306C02B985E9A80917A0280930A
:100910007B029F918F910F900FBE0F901F901895A3
:100920001F920F920FB60F9211242F933F934F9364
:100930008F939F9390917B0280910E01981301C039
:100940005E9820917B0240910E0180910F0130E072
:1009500090E0840F911D2817390709F42B98809196
:100960007B028F5F80937B029F918F914F913F918C
:100970002F910F900FBE0F901F9018951F920F92FE
:100980000FB60F9211248F939F93EF93FF93809153
:100990007C02811116C0809178009091790090932B
:1009A00085028093840210927D0285E080937C0210
:1009B000ECE7F0E08081807F8083808185608083A8
:1009C00016C08530A1F480917800909179009093C1
:1009D00082028093810285E080937D0210927C02E6
:1009E000ECE7F0E08081807F808380818083EAE78C
:1009F000F0E0808180648083FF91EF919F918F91DF
:100A00000F900FBE0F901F901895E1EBF0E08081E2
:100A10008460808380818D7F808380818E7F8083CE
:100A2000E0E7F0E080818260808380818460808361
:100A300008950E942D050C940E060E94070658F09A
:100A40000E94000640F029F45F3F29F00C94F7055E
:100A500051110C9442060C94FD050E941F0668F388
:100A60009923B1F3552391F3951B550BBB27AA2767
:100A700062177307840738F09F5F5F4F220F331FA1
:100A8000441FAA1FA9F335D00E2E3AF0E0E832D069
:100A900091505040E695001CCAF72BD0FE2F29D06C
:100AA000660F771F881FBB1F261737074807AB073E
:100AB000B0E809F0BB0B802DBF01FF2793585F4FB3
:100AC0003AF09E3F510578F00C94F7050C944206DD
:100AD0005F3FE4F3983ED4F3869577956795B79595
:100AE000F7959F5FC9F7880F911D9695879597F9A0
:100AF0000895E1E0660F771F881FBB1F6217730719
:100B00008407BA0720F0621B730B840BBA0BEE1F2D
:100B100088F7E09508950E94270688F09F5798F07F
:100B2000B92F9927B751B0F0E1F0660F771F881FF2
:100B3000991F1AF0BA95C9F714C0B13091F00E940C
:100B40004106B1E008950C944106672F782F88275D
:100B5000B85F39F0B93FCCF3869577956795B39533
:100B6000D9F73EF490958095709561957F4F8F4FA2
:100B70009F4F0895E89409C097FB3EF490958095A7
:100B8000709561957F4F8F4F9F4F9923A9F0F92F53
:100B900096E9BB279395F695879577956795B795D1
:100BA000F111F8CFFAF4BB0F11F460FF1BC06F5FB7
:100BB0007F4F8F4F9F4F16C0882311F096E911C0C9
:100BC000772321F09EE8872F762F05C0662371F0EA
:100BD00096E8862F70E060E02AF09A95660F771FFE
:100BE000881FDAF7880F9695879597F9089597F9F2
:100BF0009F6780E870E060E008959FEF80EC0895C3
:100C000000240A94161617061806090608950024EB
:100C10000A9412161306140605060895092E039465
:100C2000000C11F4882352F0BB0F40F4BF2B11F4D9
:100C300060FF04C06F5F7F4F8F4F9F4F089557FD38
:100C40009058440F551F59F05F3F71F04795880F3A
:100C500097FB991F61F09F3F79F0879508951216D1
:100C600013061406551FF2CF4695F1DF08C016167D
:100C700017061806991FF1CF86957105610508942E
:100C80000895E894BB2766277727CB0197F9089545
:100C90000E945B060C940E060E94000638F00E942B
:100CA000070620F0952311F00C94F7050C94FD0530
:100CB00011240C9442060E941F0670F3959FC1F305
:100CC000950F50E0551F629FF001729FBB27F00DFA
:100CD000B11D639FAA27F00DB11DAA1F649F66274F
:100CE000B00DA11D661F829F2227B00DA11D621F9E
:100CF000739FB00DA11D621F839FA00D611D221F58
:100D0000749F3327A00D611D231F849F600D211D3B
:100D1000822F762F6A2F11249F5750409AF0F1F0BE
:100D200088234AF0EE0FFF1FBB1F661F771F881F27
:100D300091505040A9F79E3F510580F00C94F70563
:100D40000C9442065F3FE4F3983ED4F38695779582
:100D50006795B795F795E7959F5FC1F7FE2B880FCD
:100D6000911D9695879597F90895A0E1B0E0EBEB7A
:100D7000F6E00C94320A7C011B016A01FC01178227
:100D80001682838181FF44C39E012F5F3F4F39014B
:100D9000F7019381F10193FD859193FF81911F01EB
:100DA000882309F431C3853239F493FD859193FF8B
:100DB00081911F01853239F4B70190E00E94570BF1
:100DC00056016501E5CF10E0512C912CFFE1F9159A
:100DD000D8F08B3279F038F4803279F08332A1F494
:100DE000F92DF0612EC08D3261F0803369F4292D28
:100DF00021602DC0392D3260932E892D8460982E6C
:100E00002AC0E92DE86015C097FC2DC020ED280F01
:100E10002A3088F496FE06C03AE0139F200D112474
:100E2000122F19C08AE0589E200D1124522EE92D50
:100E3000E0629E2E10C08E3231F496FCE5C2F92D90
:100E4000F0649F2E08C08C3621F4292D2068922E44
:100E500002C0883641F4F10193FD859193FF8191A1
:100E60001F018111B3CF9BEB980F933020F4992D84
:100E70009061805E07C09BE9980F933008F066C1CF
:100E8000992D9F7E96FF16E09F73992E853619F453
:100E90009064992E08C0863621F4392F3068932E3D
:100EA00002C01111115097FE07C01C3350F44424A6
:100EB0004394410E27E00BC0183038F027E017E0CC
:100EC00005C027E09CE3492E02C0212F412C56018A
:100ED00084E0A80EB11CF60160817181828193814A
:100EE000042DA3010E94690A6C01F981FC87F0FFBF
:100EF00002C0F3FF06C091FC06C092FE06C000E2ED
:100F000005C00DE203C00BE201C000E08C858C70CF
:100F100019F001115AC29BC297FE10C04C0CFC85FF
:100F2000F4FF04C08A81813309F44A94141474F5DF
:100F300028E0241578F588E0482E2CC096FC2AC0BD
:100F4000812F90E08C159D059CF03CEFC3163FEF80
:100F5000D30674F0892D8068982E0AC0E2E0F0E094
:100F6000EC0FFD1FE10FF11D8081803319F411504A
:100F70001111F4CF97FE0EC044244394410E812FEB
:100F800090E0C816D9062CF41C1904C044244394DC
:100F900001C010E097FE06C01C141D0434F4C60105
:100FA000019605C085E090E002C081E090E001116B
:100FB0000196112331F0212F30E02F5F3F4F820F38
:100FC000931F252D30E08217930714F4581A01C09F
:100FD000512C892D897049F4552039F0B70180E2F0
:100FE00090E00E94570B5A94F7CF002329F0B701E5
:100FF000802F90E00E94570B93FC09C0552039F0D8
:10100000B70180E390E00E94570B5A94F7CF97FE08
:101010004CC04601D7FE02C0812C912CC601881914
:101020009909F301E80FF91FFE87ED87960124194E
:101030003109388B2F87012F10E011950195110987
:101040003FEF8316930629F4B7018EE290E00E94E9
:10105000570BC814D9044CF08F85988988159905C9
:1010600024F4ED85FE85818101C080E3F1E08F1AD3
:1010700091082D853E852F5F3F4F3E872D87801637
:1010800091062CF0B70190E00E94570BD9CFC814FD
:10109000D90441F49A81963320F4953319F43C85B0
:1010A00034FF81E3B70190E04EC08A81813319F0AB
:1010B0009C859F7E9C87B70190E00E94570B111181
:1010C00005C094FC18C085E690E017C0B7018EE219
:1010D00090E00E94570B1E5F82E001E0080FF301D1
:1010E000E80FF11D8081B70190E00E94570B802F1F
:1010F0000113F3CFE6CF85E490E0B7010E94570BD0
:10110000D7FC06C0C114D10441F4EC85E4FF05C04E
:10111000D194C194D1088DE201C08BE2B70190E077
:101120000E94570B80E32AE0C216D1042CF08F5F97
:10113000FAE0CF1AD108F7CFB70190E00E94570B21
:10114000B701C601C0960E94570B54C1833631F0D7
:10115000833779F0833509F056C020C0560132E05C
:10116000A30EB11CF6018081898301E010E06301C8
:1011700012C05601F2E0AF0EB11CF601C080D18062
:1011800096FE03C0612F70E002C06FEF7FEFC601D3
:101190000E944C0B8C01F92DFF7714C0560122E000
:1011A000A20EB11CF601C080D18096FE03C0612F53
:1011B00070E002C06FEF7FEFC6010E94410B8C010F
:1011C000F92DF0689F2EF3FD1AC0852D90E00817C9
:1011D0001907A8F4B70180E290E00E94570B5A94D7
:1011E000F4CFF60197FC859197FE81916F01B701CD
:1011F00090E00E94570B51105A94015011090115AB
:10120000110579F7F7C0843611F0893661F556017A
:1012100097FE09C024E0A20EB11CF6016081718125
:10122000828193810AC0F2E0AF0EB11CF6016081A9
:101230007181072E000C880B990BF92DFF769F2EDC
:1012400097FF09C090958095709561957F4F8F4F5E
:101250009F4FF0689F2E2AE030E0A3010E94B00B60
:10126000C82EC6183FC0092D853721F40F7E2AE00D
:1012700030E01DC0097F8F3691F018F4883559F0A1
:10128000C3C0803719F0883711F0BEC0006104FF79
:1012900009C0046007C094FE08C0066006C028E0CC
:1012A00030E005C020E130E002C020E132E056012C
:1012B00007FF09C084E0A80EB11CF60160817181AE
:1012C0008281938108C0F2E0AF0EB11CF60160810B
:1012D000718180E090E0A3010E94B00BC82EC61877
:1012E0000F77902E96FE0BC0092D0E7FC11650F47D
:1012F00094FE0AC092FC08C0092D0E7E05C0DC2CAD
:10130000092D03C0DC2C01C0D12E04FF0DC0FE014D
:10131000EC0DF11D8081803311F4097E09C002FFBC
:1013200006C0D394D39404C0802F867809F0D39458
:1013300003FD11C000FF06C01C2DD51480F4150D4F
:101340001D190DC0D51458F4B70180E290E00E9439
:10135000570BD394F7CFD51410F45D1801C0512C5E
:1013600004FF10C0B70180E390E00E94570B02FF1A
:1013700017C001FD03C088E790E002C088E590E057
:10138000B7010CC0802F867859F001FF02C08BE2B4
:1013900001C080E207FD8DE2B70190E00E94570B8B
:1013A000C11638F4B70180E390E00E94570B11504A
:1013B000F7CFCA94F301EC0DF11D8081B70190E0E5
:1013C0000E94570BC110F5CF15C0F4E0F51560F57C
:1013D00084E0581A93FE1FC0011127C02C8523FFFB
:1013E0002AC008E610E0392D3071932EF80184915F
:1013F000811124C0552009F4E4CCB70180E290E0CB
:101400000E94570B5A94F6CFF7018681978126C028
:101410008FEF9FEF23C0B70180E290E00E94570B4F
:101420005A945110F8CFD8CF512CB701802F90E0AB
:101430000E94570BD3CF0CE610E0D5CF911080520D
:10144000B70190E00E94570B0F5F1F4FCFCF23E0F3
:10145000251510F483E0BDCF512CC0CF6096E2E19A
:101460000C944E0A2F923F924F925F926F927F920E
:101470008F929F92AF92BF92CF92DF92EF92FF92A4
:101480000F931F93CF93DF93CDB7DEB7CA1BDB0B50
:101490000FB6F894DEBF0FBECDBF09942A883988F5
:1014A00048885F846E847D848C849B84AA84B984FC
:1014B000C884DF80EE80FD800C811B81AA81B98108
:1014C000CE0FD11D0FB6F894DEBF0FBECDBFED011C
:1014D0000895283008F027E03327DA01990F311DED
:1014E00087FD916000966105710539F432602E5FC9
:1014F0003D9330E32A95E1F708959F3F30F080381F
:101500007105610509F03C5F3C5F3D93913008F047
:101510008068911DDF93CF931F930F93FF92EF92FB
:10152000192F987F9695E92F96959695E90FFF27A5
:10153000E653FF4F99273327EE24FF24A701E70145
:1015400005900894079428F4360FE71EF81E491FEB
:10155000511D660F771F881F991F0694A1F70590EC
:10156000079428F4E70EF81E491F561FC11D770F78
:10157000881F991F661F0694A1F70590079428F409
:10158000F80E491F561FC71FD11D880F991F661FD0
:10159000771F0694A1F70590079420F4490F561F72
:1015A000C71FD81F990F661F771F881F0694A9F7BA
:1015B00084911095177041F0D695C795579547952A
:1015C000F794E7941A95C1F7E0E7F0E06894159076
:1015D000159135916591959105907FE27395E1188C
:1015E000F10A430B560BC90BD009C0F7E10CF11EF1
:1015F000431F561FC91FD01D7EF4703311F48A9506
:10160000E6CFE894015030F0080F0AF400270217E3
:1016100008F4202F2395022F7A3328F079E37D9365
:101620002A95E9F710C07D932A9589F60694979537
:101630006795379517951794E118F10A430B560BE8
:10164000C90BD00998F023957E9173957A3308F0F1
:1016500070E37C932013B8F77E9170617D9330F036
:10166000839571E37D9370E32A95E1F71124EF9060
:10167000FF900F911F91CF91DF91992787FD909552
:101680000895FC010590615070400110D8F78095D5
:1016900090958E0F9F1F0895FC016150704001903E
:1016A0000110D8F7809590958E0F9F1F08950F9386
:1016B0001F93CF93DF93FB01238121FD03C08FEFA5
:1016C0009FEF2CC022FF16C04681578124813581AF
:1016D0004217530744F4A081B1819D012F5F3F4F12
:1016E000318320838C93268137812F5F3F4F37834F
:1016F000268314C08B01EC01FB010084F185E02DF1
:101700000995892BE1F6D80116968D919C91179732
:10171000019617969C938E931697CE01DF91CF91E9
:101720001F910F910895A0E0B0E0E9E9FBE00C946F
:10173000420AAE014B5F5F4FFA0161917191AF01B7
:101740008091B0029091B1020E94B506E2E00C9443
:101750005E0A6091B0027091B1020E94570B089529
:10176000FA01AA27283051F1203181F1E8946F93D2
:101770006E7F6E5F7F4F8F4F9F4FAF4FB1E03ED078
:10178000B4E03CD0670F781F891F9A1FA11D680F16
:10179000791F8A1F911DA11D6A0F711D811D911D49
:1017A000A11D20D009F468943F912AE0269F1124BE
:1017B0003019305D3193DEF6CF010895462F477022
:1017C000405D4193B3E00FD0C9F7F6CF462F4F707D
:1017D000405D4A3318F0495D31FD4052419302D0DB
:1017E000A9F7EACFB4E0A695979587957795679581
:1017F000BA95C9F700976105710508959B01AC0181
:101800000A2E06945795479537952795BA95C9F7A7
:10181000620F731F841F951FA01D0895F894FFCFBA
:1018200000000002000000007C01000000002243D4
:1018300086080C0A0D095C222F0062666E72745CC9
:10184000222F0074727565006E756C6C0066616C99
:1018500073650025640025670022005C0041424357
:101860004445464748494A4B4C4D4E4F50515253C0
:101870005455565758595A6162636465666768697A
:101880006A6B6C6D6E6F7071727374757677787940
:101890007A303132333435363738392B2F002E2A0F
:1018A00051002E2A7300222564223A00226D6663BD
:1018B000223A7B227265713A2225642564256422CE
:1018C0002C22637572223A222564227D2C227665B1
:1018D000723A22223030312E3030332E3030352CD7
:1018E0000022706172616D223A7B22707772223A17
:1018F0002225302E326657222C2266726571223ADA
:101900002225302E3166487A222C2263757272228B
:101910003A2225302E346641222C22766F6C7422B6
:101920003A2225302E326656227D2C0022636C72BC
:10193000223A226577222C00226577223A5B2263C5
:101940006D70725374616C6C6564222C22626C6FD2
:10195000636B656444756374225D00202020202041
:101960002020202020202020202020202020202077
:101970002020202020202020202020202000564928
:101980004F4C4154494F4E3A204D4F544F522049ED
:081990004420272564270A000A
:00000001FF
