:100000000C94B5000C94D2000C94D2000C94D20045
:100010000C94D2000C94D2000C94D2000C94B60430
:100020000C94E2040C94D2000C94D2000C94D200F4
:100030000C94D2000C94D2000C94D2000C94D200F8
:100040000C94D2000C94D2000C9483040C94D20033
:100050000C94D2000C9410050C94D2000C94D20095
:100060000C94D2000C94D2006E616E00696E660032
:1000700000407A10F35A00A0724E18090010A5D45F
:10008000E80000E87648170000E40B54020000CABC
:100090009A3B000000E1F505000080969800000002
:1000A00040420F000000A086010000001027000061
:1000B0000000E803000000006400000000000A00E7
:1000C000000000000100000000002C76D888DC67EA
:1000D0004F0823DFC1DFAE59E1B1B796E5E3E45342
:1000E000C63AE651997696E8E6C28426EB898C9B5F
:1000F00062ED407C6FFCEFBC9C9F40F2BAA56FA5FF
:10010000F490055A2AF75C936B6CF9676DC11BFC80
:10011000E0E40D47FEF520E6B500D0ED902E03009B
:10012000943577050080841E080000204E0A0000E8
:1001300000C80C333333330F986E12831141EF8DA7
:100140002114893BE65516CFFEE6DB18D1844B38E7
:100150001BF77C1D901DA4BBE424203284725E2218
:100160008100C9F124ECA1E53D2711241FBECFEF8A
:10017000D8E0DEBFCDBF12E0A0E0B1E0E4ECF8E1F2
:1001800002C005900D92AC3FB107D9F723E0ACEF68
:10019000B2E001C01D92A833B207E1F70E947102DC
:1001A0000C94600C0C940000ECE7F0E080818F77F9
:1001B000808380818064808380818F7D8083808143
:1001C000877F808380818B7F808380818D7F808308
:1001D00080818E7F808310920003EAE7F0E08081C7
:1001E0008068808380818860808380818460808350
:1001F000808182608083808181608083808180644F
:1002000080830895BC0180E090E00E940C0620E00D
:1002100030E040EA50E40E949A0620E030E040E8F6
:100220005AE30E949A06089526E636E646E250E42E
:100230000E949A0608952AE939E949E15EE30E949D
:100240006B0508958F929F92AF92BF92EF920F939A
:100250000E949A064B015C01602F70E080E090E004
:100260000E940E069B01AC01C501B4010E949A06D2
:100270004B015C016E2D70E080E090E00E940E0664
:100280009B01AC01C501B4010E946B050F91EF9079
:10029000BF90AF909F908F900895A1ECB0E02C910B
:1002A00028602C932C9120612C932C9120682C9306
:1002B000E2ECF0E020812F77208320812F7B2083C8
:1002C00020812F7D208320812F7E20832081277F06
:1002D00020832C912B7F2C93208126602083909368
:1002E000C5008093C4000895E0ECF0E0908195FF94
:1002F000FDCF8093C6000895CF93C82F8A3019F49C
:100300008DE00E9474018C2F0E94740180E090E0C7
:10031000CF9108952F923F924F925F926F927F926A
:100320008F929F92AF92BF92CF92DF92EF92FF9205
:100330000F931F93CF93DF9300D000D0CDB7DEB7DC
:10034000682E762E4B835C8329833A83598C4A8CA2
:100350003B8C2C8C8BE790E00E94FB0B1F926F92E2
:1003600081E191E09F938F930E94E50B8BE790E0F2
:100370000E94FB0B0F900F900F900F908D8D882394
:1003800099F01F927F928C818F939B819F9387E13D
:1003900091E09F938F930E94E50B0F900F900F9029
:1003A0000F900F900F9013C01F927F921F921F9279
:1003B0001F921F921F921F9288E491E09F938F9348
:1003C0000E94E50B0FB6F894DEBF0FBECDBF2F9293
:1003D0003F924F925F92BF92AF929F928F929A817B
:1003E0009F9389818F931F930F93FF92EF92DF92D8
:1003F000CF928DE791E09F938F930E94E50B0FB60C
:10040000F894DEBF0FBECDBF8E8D811119C08F8DC8
:10041000811144C098A1911130C012C088EC91E0C4
:100420009F938F930E94E50B0F900F9019C08FEE52
:1004300091E09F938F930E94E50B0F900F9010C057
:100440008DE292E09F938F930E94E50B86E192E00C
:100450009F938F930E94E50B0F900F900F900F903A
:100460008DE790E00E94FB0B8DE790E00E94FB0B74
:100470008AE090E00E94FB0B1DC089E392E09F930D
:100480008F930E94E50B85E492E09F938F930E94E7
:10049000E50B0F900F900F900F90E2CF89E392E061
:1004A0009F938F930E94E50B0F900F9088A181116D
:1004B000BECFB4CF0F900F900F900F90DF91CF91E0
:1004C0001F910F91FF90EF90DF90CF90BF90AF9072
:1004D0009F908F907F906F905F904F903F902F9064
:1004E0000895CF93DF93CDB7DEB761970FB6F89439
:1004F000DEBF0FBECDBF8FEF84B987B98AB93898F8
:100500003D980E9457050E94D40080E091E09093AE
:1005100035038093340387E690E00E944D01789480
:100520000F2EF1EE6F2EF2E07F2EF02D6894222434
:1005300025F88091FC02882309F4D8C1ACE0B3E02F
:100540008C918B3709F0C2C180910D03823209F082
:10055000BDC180910E03833309F0B8C180910F03B0
:10056000823209F0B3C1809110038A3309F0AEC121
:10057000E5E0F0E024E030E062E070E041E050E0EF
:100580001C82312CD12CC9010497DC01A45FBC4F23
:10059000AC91A13709F05AC0DA01A45FBC4FAC910D
:1005A000A23209F053C0DB01A45FBC4FAC91AA3367
:1005B00009F04CC0D901A55FBC4FAC91A23209F043
:1005C00045C08F01045F1C4FD8011C91123251F4B9
:1005D000D901A45FBC4FFC90FE82DD82DF82332410
:1005E000339434C089010E5F1F4FD801A45FBC4F04
:1005F000FC90B2E2FB120FC08901045F1C4FD801CE
:10060000BC91BD83DF01A45FBC4FFC90FE82DF8202
:10061000332433941BC0D901A15FBC4FFC90B2E2DC
:10062000FB1212C0D901A45FBC4FBC91BF83DF0194
:10063000A45FBC4FFC90FD82D801A45FBC4F1C910D
:100640001E833324339402C033243394DC01A45F2B
:10065000BC4F8C918237D1F4DA01A45FBC4F8C91EE
:100660008232A1F4DB01A45FBC4F8C918A3371F418
:10067000D901A45FBC4F8C91853641F4DF01A45FA2
:10068000BC4F8C91873711F411E01C834F5F5F4F93
:100690006F5F7F4F2F5F3F4F31962A32310509F050
:1006A00072CF2F81822F90E0C097A4E6A89F2001EF
:1006B000A99F500C1124BD818B2F90E0C0979C0105
:1006C000220F331F880F991F880F991F880F991FBA
:1006D000820F931F840D951DEE814E2E512CF0E359
:1006E0004F1A5108480E591E332009F45DC01FEF00
:1006F0004116510451F425E82093100183E48093BE
:100700000F0192E290930E014FC04114510449F43D
:10071000A8ECA0931001B4E6B0930F0110920E0163
:1007200043C0C2010197813B910560F5E8ECE0937D
:100730001001F4E6F0930F0110911001B20180E076
:1007400090E00E940C062AE939E949E95EE30E943B
:100750009A066B017C01612F70E080E090E00E94BE
:100760000E069B01AC01C701B6010E949A0620E06B
:1007700030E048E453E40E946B050E94DD0560937D
:100780000E0112C0C201825B91098D34910560F0A7
:100790000F2EF0E5FF2EF02DF092100118E21093CD
:1007A0000F0124E120930E01809108039091090329
:1007B0000E9402010E94140169837A838B83192F9E
:1007C00080910503909106030E9402010E941B0183
:1007D0004B015C01E0900F0100910E0120E030E040
:1007E00040E05FE3B981AA81FB816B2F7A2F8F2FC5
:1007F000912F0E9422016B017C0180910E0388875A
:1008000000910E019091100199876091100170E0A4
:1008100080E090E00E940E0620E030E040E05FE3E0
:100820000E949A069B01AC0160E070E080E89FE3C3
:100830000E946B0520E030E04AE754E40E949A06EB
:100840006A877B878C879D87A8ECA09FB0011124C5
:10085000072E000C880B990B0E940E066E877F876F
:10086000888B998BB9856B2F70E080E090E00E94B7
:100870000E062AE939E949E95EE30E949A069B01DE
:10088000AC016E857F85888999890E946B050E94DD
:10089000DD051F921F92EC81EF933F921F931B8106
:1008A0001F931A811F9319811F930A851B852C851D
:1008B0003D85A201888580530E948A011092FC0226
:1008C0000FB6F894DEBF0FBECDBF10C080910E03EF
:1008D00090E0C0979F938F937F926F920E94E50B59
:1008E0001092FC020F900F900F900F9085B182250F
:1008F00085B99FEFA1EEB4E09150A040B040E1F780
:1009000000C0000016CE1F920F920FB60F92112456
:100910008F93EF93FF938091FD02853271F0E09108
:10092000FD02F0E08091C600E45FFC4F808380917F
:10093000FD028F5F8093FD0211C08091FD02853220
:1009400069F4E091FD02F0E08091C600E45FFC4FA5
:10095000808381E08093FC021092FD02FF91EF9171
:100960008F910F900FBE0F901F9018951F920F92AE
:100970000FB60F9211248F939F939091FF02809155
:10098000FE02981303C02B985E9A15C09091FF0247
:1009900080910F01981303C05E982B9A0CC0909120
:1009A000FF0280911001981306C02B985E9A8091E7
:1009B000FE028093FF029F918F910F900FBE0F90C8
:1009C0001F9018951F920F920FB60F9211242F931C
:1009D0003F934F938F939F939091FF0280910E01CD
:1009E000981301C05E982091FF0240910E01809102
:1009F0000F0130E090E0840F911D2817390709F4AA
:100A00002B988091FF028F5F8093FF029F918F91BF
:100A10004F913F912F910F900FBE0F901F901895FF
:100A20001F920F920FB60F9211248F939F93EF9303
:100A3000FF9380910003811116C0809178009091FE
:100A4000790090930903809308031092010385E0D5
:100A500080930003ECE7F0E08081807F80838081D9
:100A60008560808316C08530A1F4809178009091D4
:100A70007900909306038093050385E0809301033A
:100A800010920003ECE7F0E08081807F808380811A
:100A90008083EAE7F0E0808180648083FF91EF91BA
:100AA0009F918F910F900FBE0F901F901895E1EBC3
:100AB000F0E080818460808380818D7F808380816D
:100AC0008E7F8083E0E7F0E0808182608083808198
:100AD0008460808308950E947F050C9460060E94C4
:100AE000590658F00E94520640F029F45F3F29F061
:100AF0000C94490651110C9494060C944F060E94D4
:100B0000710668F39923B1F3552391F3951B550BA7
:100B1000BB27AA2762177307840738F09F5F5F4FD0
:100B2000220F331F441FAA1FA9F335D00E2E3AF00F
:100B3000E0E832D091505040E695001CCAF72BD027
:100B4000FE2F29D0660F771F881FBB1F2617370778
:100B50004807AB07B0E809F0BB0B802DBF01FF27AA
:100B600093585F4F3AF09E3F510578F00C94490638
:100B70000C9494065F3FE4F3983ED4F38695779502
:100B80006795B795F7959F5FC9F7880F911D969563
:100B9000879597F90895E1E0660F771F881FBB1FBF
:100BA000621773078407BA0720F0621B730B840B6C
:100BB000BA0BEE1F88F7E09508950E94790688F039
:100BC0009F5798F0B92F9927B751B0F0E1F0660F11
:100BD000771F881F991F1AF0BA95C9F714C0B13052
:100BE00091F00E949306B1E008950C949306672F4C
:100BF000782F8827B85F39F0B93FCCF38695779581
:100C00006795B395D9F73EF4909580957095619569
:100C10007F4F8F4F9F4F0895E89409C097FB3EF494
:100C200090958095709561957F4F8F4F9F4F992339
:100C3000A9F0F92F96E9BB279395F69587957795B7
:100C40006795B795F111F8CFFAF4BB0F11F460FF77
:100C50001BC06F5F7F4F8F4F9F4F16C0882311F0CF
:100C600096E911C0772321F09EE8872F762F05C0E3
:100C7000662371F096E8862F70E060E02AF09A957E
:100C8000660F771F881FDAF7880F9695879597F973
:100C9000089597F99F6780E870E060E008959FEFFE
:100CA00080EC089500240A94161617061806090603
:100CB000089500240A9412161306140605060895D2
:100CC000092E0394000C11F4882352F0BB0F40F45A
:100CD000BF2B11F460FF04C06F5F7F4F8F4F9F4F9A
:100CE000089557FD9058440F551F59F05F3F71F01C
:100CF0004795880F97FB991F61F09F3F79F0879583
:100D00000895121613061406551FF2CF4695F1DF0B
:100D100008C0161617061806991FF1CF869571059B
:100D2000610508940895E894BB2766277727CB01CF
:100D300097F908950E94AD060C9460060E94520631
:100D400038F00E94590620F0952311F00C944906C2
:100D50000C944F0611240C9494060E94710670F3B3
:100D6000959FC1F3950F50E0551F629FF001729F50
:100D7000BB27F00DB11D639FAA27F00DB11DAA1F5F
:100D8000649F6627B00DA11D661F829F2227B00DAC
:100D9000A11D621F739FB00DA11D621F839FA00D37
:100DA000611D221F749F3327A00D611D231F849F87
:100DB000600D211D822F762F6A2F11249F575040DE
:100DC0009AF0F1F088234AF0EE0FFF1FBB1F661F59
:100DD000771F881F91505040A9F79E3F510580F022
:100DE0000C9449060C9494065F3FE4F3983ED4F3C8
:100DF000869577956795B795F795E7959F5FC1F7C6
:100E0000FE2B880F911D9695879597F90895A0E17F
:100E1000B0E0EDE0F7E00C94840A7C011B016A016C
:100E2000FC0117821682838181FF44C39E012F5FDC
:100E30003F4F3901F7019381F10193FD859193FFB4
:100E400081911F01882309F431C3853239F493FD60
:100E5000859193FF81911F01853239F4B70190E0AC
:100E60000E94A90B56016501E5CF10E0512C912C91
:100E7000FFE1F915D8F08B3279F038F4803279F04F
:100E80008332A1F4F92DF0612EC08D3261F08033F0
:100E900069F4292D21602DC0392D3260932E892DC2
:100EA0008460982E2AC0E92DE86015C097FC2DC0FB
:100EB00020ED280F2A3088F496FE06C03AE0139FF2
:100EC000200D1124122F19C08AE0589E200D1124E4
:100ED000522EE92DE0629E2E10C08E3231F496FC27
:100EE000E5C2F92DF0649F2E08C08C3621F4292D1F
:100EF0002068922E02C0883641F4F10193FD85915D
:100F000093FF81911F018111B3CF9BEB980F933019
:100F100020F4992D9061805E07C09BE9980F933073
:100F200008F066C1992D9F7E96FF16E09F73992E5B
:100F3000853619F49064992E08C0863621F4392F2D
:100F40003068932E02C01111115097FE07C01C3358
:100F500050F444244394410E27E00BC0183038F07D
:100F600027E017E005C027E09CE3492E02C0212FAF
:100F7000412C560184E0A80EB11CF60160817181FC
:100F800082819381042DA3010E94BB0A6C01F98127
:100F9000FC87F0FF02C0F3FF06C091FC06C092FE82
:100FA00006C000E205C00DE203C00BE201C000E094
:100FB0008C858C7019F001115AC29BC297FE10C02B
:100FC0004C0CFC85F4FF04C08A81813309F44A94F7
:100FD000141474F528E0241578F588E0482E2CC008
:100FE00096FC2AC0812F90E08C159D059CF03CEF6B
:100FF000C3163FEFD30674F0892D8068982E0AC07F
:10100000E2E0F0E0EC0FFD1FE10FF11D8081803385
:1010100019F411501111F4CF97FE0EC044244394DB
:10102000410E812F90E0C816D9062CF41C1904C07B
:101030004424439401C010E097FE06C01C141D0414
:1010400034F4C601019605C085E090E002C081E05D
:1010500090E001110196112331F0212F30E02F5F34
:101060003F4F820F931F252D30E08217930714F412
:10107000581A01C0512C892D897049F4552039F036
:10108000B70180E290E00E94A90B5A94F7CF0023A9
:1010900029F0B701802F90E00E94A90B93FC09C0B2
:1010A000552039F0B70180E390E00E94A90B5A94D3
:1010B000F7CF97FE4CC04601D7FE02C0812C912C81
:1010C000C60188199909F301E80FF91FFE87ED871A
:1010D000960124193109388B2F87012F10E01195C3
:1010E000019511093FEF8316930629F4B7018EE2AB
:1010F00090E00E94A90BC814D9044CF08F85988900
:101100008815990524F4ED85FE85818101C080E371
:10111000F1E08F1A91082D853E852F5F3F4F3E8766
:101120002D87801691062CF0B70190E00E94A90B44
:10113000D9CFC814D90441F49A81963320F4953359
:1011400019F43C8534FF81E3B70190E04EC08A81F9
:10115000813319F09C859F7E9C87B70190E00E94A7
:10116000A90B111105C094FC18C085E690E017C0CA
:10117000B7018EE290E00E94A90B1E5F82E001E0C1
:10118000080FF301E80FF11D8081B70190E00E9484
:10119000A90B802F0113F3CFE6CF85E490E0B701D0
:1011A0000E94A90BD7FC06C0C114D10441F4EC8500
:1011B000E4FF05C0D194C194D1088DE201C08BE257
:1011C000B70190E00E94A90B80E32AE0C216D10487
:1011D0002CF08F5FFAE0CF1AD108F7CFB70190E07B
:1011E0000E94A90BB701C601C0960E94A90B54C169
:1011F000833631F0833779F0833509F056C020C04B
:10120000560132E0A30EB11CF6018081898301E012
:1012100010E0630112C05601F2E0AF0EB11CF601FE
:10122000C080D18096FE03C0612F70E002C06FEFD6
:101230007FEFC6010E949E0B8C01F92DFF7714C031
:10124000560122E0A20EB11CF601C080D18096FEAC
:1012500003C0612F70E002C06FEF7FEFC6010E94F4
:10126000930B8C01F92DF0689F2EF3FD1AC0852D8C
:1012700090E008171907A8F4B70180E290E00E94F7
:10128000A90B5A94F4CFF60197FC859197FE8191B2
:101290006F01B70190E00E94A90B51105A940150C0
:1012A00011090115110579F7F7C0843611F0893657
:1012B00061F5560197FE09C024E0A20EB11CF601AB
:1012C00060817181828193810AC0F2E0AF0EB11C0E
:1012D000F60160817181072E000C880B990BF92DA6
:1012E000FF769F2E97FF09C0909580957095619528
:1012F0007F4F8F4F9F4FF0689F2E2AE030E0A30171
:101300000E94020CC82EC6183FC0092D853721F453
:101310000F7E2AE030E01DC0097F8F3691F018F46F
:10132000883559F0C3C0803719F0883711F0BEC036
:10133000006104FF09C0046007C094FE08C0066095
:1013400006C028E030E005C020E130E002C020E126
:1013500032E0560107FF09C084E0A80EB11CF60177
:10136000608171818281938108C0F2E0AF0EB11C6F
:10137000F6016081718180E090E0A3010E94020C7F
:10138000C82EC6180F77902E96FE0BC0092D0E7F23
:10139000C11650F494FE0AC092FC08C0092D0E7EBE
:1013A00005C0DC2C092D03C0DC2C01C0D12E04FFAC
:1013B0000DC0FE01EC0DF11D8081803311F4097E1A
:1013C00009C002FF06C0D394D39404C0802F86784E
:1013D00009F0D39403FD11C000FF06C01C2DD514E5
:1013E00080F4150D1D190DC0D51458F4B70180E215
:1013F00090E00E94A90BD394F7CFD51410F45D1898
:1014000001C0512C04FF10C0B70180E390E00E949E
:10141000A90B02FF17C001FD03C088E790E002C0DE
:1014200088E590E0B7010CC0802F867859F001FF65
:1014300002C08BE201C080E207FD8DE2B70190E0BF
:101440000E94A90BC11638F4B70180E390E00E9416
:10145000A90B1150F7CFCA94F301EC0DF11D808157
:10146000B70190E00E94A90BC110F5CF15C0F4E0C0
:10147000F51560F584E0581A93FE1FC0011127C0CE
:101480002C8523FF2AC008E610E0392D3071932EF9
:10149000F8018491811124C0552009F4E4CCB701EE
:1014A00080E290E00E94A90B5A94F6CFF701868162
:1014B000978126C08FEF9FEF23C0B70180E290E0B5
:1014C0000E94A90B5A945110F8CFD8CF512CB701D4
:1014D000802F90E00E94A90BD3CF0CE610E0D5CF6F
:1014E00091108052B70190E00E94A90B0F5F1F4F2F
:1014F000CFCF23E0251510F483E0BDCF512CC0CF12
:101500006096E2E10C94A00A2F923F924F925F9274
:101510006F927F928F929F92AF92BF92CF92DF9203
:10152000EF92FF920F931F93CF93DF93CDB7DEB768
:10153000CA1BDB0B0FB6F894DEBF0FBECDBF0994FC
:101540002A88398848885F846E847D848C849B8453
:10155000AA84B984C884DF80EE80FD800C811B8161
:10156000AA81B981CE0FD11D0FB6F894DEBF0FBE90
:10157000CDBFED010895283008F027E03327DA01C8
:10158000990F311D87FD916000966105710539F451
:1015900032602E5F3D9330E32A95E1F708959F3F37
:1015A00030F080387105610509F03C5F3C5F3D9388
:1015B000913008F08068911DDF93CF931F930F93B4
:1015C000FF92EF92192F987F9695E92F9695969511
:1015D000E90FFF27E653FF4F99273327EE24FF2417
:1015E000A701E70105900894079428F4360FE71E39
:1015F000F81E491F511D660F771F881F991F0694FB
:10160000A1F70590079428F4E70EF81E491F561F0E
:10161000C11D770F881F991F661F0694A1F70590BB
:10162000079428F4F80E491F561FC71FD11D880FB5
:10163000991F661F771F0694A1F70590079420F461
:10164000490F561FC71FD81F990F661F771F881F86
:101650000694A9F784911095177041F0D695C79517
:1016600057954795F794E7941A95C1F7E0E7F0E0AE
:1016700068941590159135916591959105907FE24B
:101680007395E118F10A430B560BC90BD009C0F74B
:10169000E10CF11E431F561FC91FD01D7EF470338D
:1016A00011F48A95E6CFE894015030F0080F0AF45F
:1016B0000027021708F4202F2395022F7A3328F0F1
:1016C00079E37D932A95E9F710C07D932A9589F6F1
:1016D000069497956795379517951794E118F10A31
:1016E000430B560BC90BD00998F023957E91739547
:1016F0007A3308F070E37C932013B8F77E91706121
:101700007D9330F0839571E37D9370E32A95E1F743
:101710001124EF90FF900F911F91CF91DF919927A6
:1017200087FD90950895FC0105906150704001106F
:10173000D8F7809590958E0F9F1F0895FC016150FA
:10174000704001900110D8F7809590958E0F9F1FE3
:1017500008950F931F93CF93DF93FB01238121FD06
:1017600003C08FEF9FEF2CC022FF16C04681578128
:10177000248135814217530744F4A081B1819D0132
:101780002F5F3F4F318320838C93268137812F5FDA
:101790003F4F3783268314C08B01EC01FB0100848B
:1017A000F185E02D0995892BE1F6D80116968D91EA
:1017B0009C911797019617969C938E931697CE013E
:1017C000DF91CF911F910F910895A0E0B0E0EBEE73
:1017D000FBE00C94940AAE014B5F5F4FFA016191FC
:1017E0007191AF0180913403909135030E940707F6
:1017F000E2E00C94B00A60913403709135030E94CA
:10180000A90B0895FA01AA27283051F1203181F15E
:10181000E8946F936E7F6E5F7F4F8F4F9F4FAF4FF8
:10182000B1E03ED0B4E03CD0670F781F891F9A1F0B
:10183000A11D680F791F8A1F911DA11D6A0F711DBF
:10184000811D911DA11D20D009F468943F912AE0CB
:10185000269F11243019305D3193DEF6CF010895B3
:10186000462F4770405D4193B3E00FD0C9F7F6CFE4
:10187000462F4F70405D4A3318F0495D31FD4052AC
:10188000419302D0A9F7EACFB4E0A6959795879542
:1018900077956795BA95C9F7009761057105089521
:1018A0009B01AC010A2E06945795479537952795CD
:1018B000BA95C9F7620F731F841F951FA01D089565
:0418C000F894FFCFCA
:1018C40000000002000000007C0100000000224330
:1018D40086222564223A00226D6663223A7B2272B4
:1018E40065713A222564222C22637572223A2225DC
:1018F40064227D2C227665723A22223030312E30D9
:1019040030332E3030352C00226D6663223A7B2230
:101914007265713A22256425642564222C2263753C
:1019240072223A222564227D2C227665723A222282
:101934003030312E3030332E3030352C002270616F
:1019440072616D223A7B22707772223A2225302E00
:10195400326657222C2266726571223A2225302E75
:101964003166487A222C2263757272223A2225301B
:101974002E316641222C22766F6C74223A22253055
:101984002E326656227D2C00226577223A5B222075
:1019940020202020202020202020222C2270697347
:1019A400746F6E436F6C6C6973696F6E225D002295
:1019B4006577223A5B22636D70725374616C6C6557
:1019C40064222C22706973746F6E436F6C6C69733C
:1019D400696F6E225D0020202020202020202020FE
:1019E40020202020202020202020202020202020F3
:1019F40020202020202020200022636C72223A2202
:101A04006577222C00226577223A5B22636D70721F
:101A14005374616C6C6564222C22202020202020C9
:101A2400202020202020202020225D00080C0A0DE8
:101A3400095C222F0062666E72745C222F0074723D
:101A44007565006E756C6C0066616C736500256469
:101A54000025670022005C00414243444546474854
:101A6400494A4B4C4D4E4F5051525354555657586A
:101A7400595A6162636465666768696A6B6C6D6E06
:101A84006F707172737475767778797A3031323316
:101A94003435363738392B2F002E2A51002E2A732D
:101AA4000056494F4C4154494F4E3A204D4F544FE4
:0C1AB4005220494420272564270A000026
:00000001FF
