:100000000C94B5000C94D2000C94D2000C94D20045
:100010000C94D2000C94D2000C94D2000C94D60311
:100020000C9402040C94D2000C94D2000C94D200D4
:100030000C94D2000C94D2000C94D2000C94D200F8
:100040000C94D2000C94D2000C94A3030C94D20014
:100050000C94D2000C9430040C94D2000C94D20076
:100060000C94D2000C94D2006E616E00696E660032
:1000700000407A10F35A00A0724E18090010A5D45F
:10008000E80000E87648170000E40B54020000CABC
:100090009A3B000000E1F505000080969800000002
:1000A00040420F000000A086010000001027000061
:1000B0000000E803000000006400000000000A00E7
:1000C000000000000100000000002C76D888DC67EA
:1000D0004F0823DFC1DFAE59E1B1B796E5E3E45342
:1000E000C63AE651997696E8E6C28426EB898C9B5F
:1000F00062ED407C6FFCEFBC9C9F40F2BAA56FA5FF
:10010000F490055A2AF75C936B6CF9676DC11BFC80
:10011000E0E40D47FEF520E6B500D0ED902E03009B
:10012000943577050080841E080000204E0A0000E8
:1001300000C80C333333330F986E12831141EF8DA7
:100140002114893BE65516CFFEE6DB18D1844B38E7
:100150001BF77C1D901DA4BBE424203284725E2218
:100160008100C9F124ECA1E53D2711241FBECFEF8A
:10017000D8E0DEBFCDBF12E0A0E0B1E0E6E5F7E1F8
:1001800002C005900D92A632B107D9F722E0A6E28F
:10019000B2E001C01D92A236B207E1F70E94AA01A7
:1001A0000C94A90B0C940000ECE7F0E080818F77B1
:1001B000808380818064808380818F7D8083808143
:1001C000877F808380818B7F808380818D7F808308
:1001D00080818E7F808310922A02EAE7F0E080819E
:1001E0008068808380818860808380818460808350
:1001F000808182608083808181608083808180644F
:1002000080830895BC0180E090E00E942C0520E0EE
:1002100030E040EA50E40E94BA0520E030E040E8D7
:100220005AE30E94BA0508954F925F926F927F92AF
:10023000AF92BF92CF92DF92EF92FF920F931F93F4
:10024000CF93DF93CDB7DEB728970FB6F894DEBF14
:100250000FBECDBF29013A01E982FA820B831C83CC
:1002600026E636E646E250E40E94BA056D837E83B8
:100270008F8398872AE939E949E15EE3C301B20136
:100280000E948B049B01AC016D817E818F819885DA
:100290000E94BA052B013C01A6019501C801B701D6
:1002A0000E948B049B01AC01C301B2010E94BA05FC
:1002B00028960FB6F894DEBF0FBECDBFDF91CF9169
:1002C0001F910F91FF90EF90DF90CF90BF90AF9074
:1002D0007F906F905F904F900895A1ECB0E02C91CB
:1002E00028602C932C9120612C932C9120682C93C6
:1002F000E2ECF0E020812F77208320812F7B208388
:1003000020812F7D208320812F7E20832081277FC5
:1003100020832C912B7F2C93208126602083909327
:10032000C5008093C4000895E0ECF0E0908195FF53
:10033000FDCF8093C6000895CF93C82F8A3019F45B
:100340008DE00E9494018C2F0E94940180E090E047
:10035000CF910895CF93DF9300D000D000D0CDB7D8
:10036000DEB78FEF84B987B98AB938983D980E9473
:1003700077040E94D40080E091E090935F02809324
:100380005E0287E690E00E946D0178940F2EFCE0FB
:100390002F2EF2E03F2EF02D809132029091330209
:1003A0000E940201962E872E782E692E80912F02B0
:1003B000909130020E94020169837A83482E592E5F
:1003C0000F2EFAE0AF2EF7EDBF2EF3EACF2EFCE3AF
:1003D000DF2EF02D16EAE12E1BE9F12E04EC1BE3D3
:1003E00020E030E040E05FE3692D782D872D962DE9
:1003F0000E941401162F072FF82EE92E8091260255
:10040000882309F492C1E6E3F2E080818B3709F09A
:100410007CC180913702823209F077C18091380225
:10042000833309F072C180913902823209F06DC1C3
:1004300080913A028A3309F068C180E0C12CD12C46
:1004400024E030E01B8290E0F901EE5CFD4F40813A
:10045000413709F052C0F901ED5CFD4F4081423255
:1004600009F04BC0F901EC5CFD4F40814A3309F0C3
:1004700044C0F901EB5CFD4F40814232F1F5A90126
:100480004F5F5F4FFA01EA5CFD4F6081623249F4D1
:10049000F901EA5CFD4FD080C92E892FF1E0FB8382
:1004A0002CC0B9016E5F7F4FFB01EA5CFD4FE0811C
:1004B000E23261F4F901EA5CFD4FC080FA01EA5CC6
:1004C000FD4FD080892F41E04B8317C0F901E75CD5
:1004D000FD4FE081E23279F4F901EA5CFD4F808161
:1004E000FA01EA5CFD4FC080FB01EA5CFD4FD08061
:1004F000E1E0EB8302C0F1E0FB832F5F3F4F2A3244
:10050000310509F0A1CF282F30E02053310994E6BE
:10051000929FA001939F500D11242C2D30E0205369
:100520003109B901660F771F220F331F220F331FC6
:10053000220F331F260F371F240F351F4D2D50E07C
:10054000405351095901A40EB51E0E9494018C2DEF
:100550000E9494018D2D0E9494018DE00E949401CF
:10056000EB81EE2309F45EC0FFEFAF16B10451F446
:1005700085E88093100183E480930F0182E28093E9
:100580000E0150C0A114B10449F428EC20931001CD
:1005900044E640930F0110920E0144C0C50101973B
:1005A000813B910580F588EC8093100194E690934F
:1005B0000F01D0901001B50180E090E00E942C0561
:1005C0002AE939E949E95EE30E94BA056B837C8335
:1005D0008D839E836D2D70E080E090E00E942E055B
:1005E0009B01AC016B817C818D819E810E94BA054B
:1005F00020E030E048E453E40E948B040E94FD04B4
:1006000060930E010FC0C501825B91098D34910585
:1006100048F0E0E5E093100188E280930F0184E167
:1006200080930E01F0913802FB83D0900E01C090B0
:10063000100186E891E00E941B0B8B8180531F9272
:100640008F9388E891E09F938F930E94050B86E833
:1006500091E00E941B0BF8ECFD9DB0011124072EC8
:10066000000C880B990B0E942E056B837C838D8375
:100670009E836C2D70E080E090E00E942E052AE9B8
:1006800039E949E95EE30E94BA059B01AC016B813F
:100690007C818D819E810E948B040E94FD041F92AB
:1006A0006F93BF92AF928DE891E09F938F930E94DA
:1006B000050B5F924F92FA81FF9329812F936F92DE
:1006C0007F928F929F92EF92FF920F931F938EEAE9
:1006D00091E09F938F930E94050B85EE91E00E941D
:1006E0001B0B8DEE91E00E941B0B8AE092E00E94B2
:1006F0001B0B8AE092E00E941B0B109226020FB6A1
:10070000F894DEBF0FBECDBF10C08091380290E0DC
:10071000C0979F938F933F922F920E94050B109248
:1007200026020F900F900F900F9095B180E28927CD
:1007300085B99FEFE1EEF4E09150E040F040E1F741
:1007400000C0000029CE1F920F920FB60F92112405
:100750008F93EF93FF9380912702853271F0E091A0
:100760002702F0E08091C600EA5CFD4F8083809113
:1007700027028F5F8093270211C080912702853264
:1007800069F4E0912702F0E08091C600EA5CFD4F39
:10079000808381E08093260210922702FF91EF91DF
:1007A0008F910F900FBE0F901F9018951F920F9270
:1007B0000FB60F9211248F939F93909129028091ED
:1007C0002802981303C02B985E9A15C090912902B5
:1007D00080910F01981303C05E982B9A0CC09091E2
:1007E000290280911001981306C02B985E9A80917F
:1007F0002802809329029F918F910F900FBE0F9036
:100800001F9018951F920F920FB60F9211242F93DD
:100810003F934F938F939F939091290280910E0164
:10082000981301C05E982091290240910E01809199
:100830000F0130E090E0840F911D2817390709F46B
:100840002B98809129028F5F809329029F918F912D
:100850004F913F912F910F900FBE0F901F901895C1
:100860001F920F920FB60F9211248F939F93EF93C5
:10087000FF9380912A02811116C080917800909197
:100880007900909333028093320210922B0285E01C
:1008900080932A02ECE7F0E08081807F8083808172
:1008A0008560808316C08530A1F480917800909196
:1008B00079009093300280932F0285E080932B0281
:1008C00010922A02ECE7F0E08081807F80838081B3
:1008D0008083EAE7F0E0808180648083FF91EF917C
:1008E0009F918F910F900FBE0F901F901895E1EB85
:1008F000F0E080818460808380818D7F808380812F
:100900008E7F8083E0E7F0E0808182608083808159
:100910008460808308950E949F040C9480050E9447
:10092000790558F00E94720540F029F45F3F29F0E4
:100930000C94690551110C94B4050C946F050E9438
:10094000910568F39923B1F3552391F3951B550B4A
:10095000BB27AA2762177307840738F09F5F5F4F92
:10096000220F331F441FAA1FA9F335D00E2E3AF0D1
:10097000E0E832D091505040E695001CCAF72BD0E9
:10098000FE2F29D0660F771F881FBB1F261737073A
:100990004807AB07B0E809F0BB0B802DBF01FF276C
:1009A00093585F4F3AF09E3F510578F00C946905DB
:1009B0000C94B4055F3FE4F3983ED4F386957795A5
:1009C0006795B795F7959F5FC9F7880F911D969525
:1009D000879597F90895E1E0660F771F881FBB1F81
:1009E000621773078407BA0720F0621B730B840B2E
:1009F000BA0BEE1F88F7E09508950E94990588F0DC
:100A00009F5798F0B92F9927B751B0F0E1F0660FD2
:100A1000771F881F991F1AF0BA95C9F714C0B13013
:100A200091F00E94B305B1E008950C94B305672FCF
:100A3000782F8827B85F39F0B93FCCF38695779542
:100A40006795B395D9F73EF490958095709561952B
:100A50007F4F8F4F9F4F0895E89409C097FB3EF456
:100A600090958095709561957F4F8F4F9F4F9923FB
:100A7000A9F0F92F96E9BB279395F6958795779579
:100A80006795B795F111F8CFFAF4BB0F11F460FF39
:100A90001BC06F5F7F4F8F4F9F4F16C0882311F091
:100AA00096E911C0772321F09EE8872F762F05C0A5
:100AB000662371F096E8862F70E060E02AF09A9540
:100AC000660F771F881FDAF7880F9695879597F935
:100AD000089597F99F6780E870E060E008959FEFC0
:100AE00080EC089500240A941616170618060906C5
:100AF000089500240A941216130614060506089594
:100B0000092E0394000C11F4882352F0BB0F40F41B
:100B1000BF2B11F460FF04C06F5F7F4F8F4F9F4F5B
:100B2000089557FD9058440F551F59F05F3F71F0DD
:100B30004795880F97FB991F61F09F3F79F0879544
:100B40000895121613061406551FF2CF4695F1DFCD
:100B500008C0161617061806991FF1CF869571055D
:100B6000610508940895E894BB2766277727CB0191
:100B700097F908950E94CD050C9480050E94720596
:100B800038F00E94790520F0952311F00C94690546
:100B90000C946F0511240C94B4050E94910570F318
:100BA000959FC1F3950F50E0551F629FF001729F12
:100BB000BB27F00DB11D639FAA27F00DB11DAA1F21
:100BC000649F6627B00DA11D661F829F2227B00D6E
:100BD000A11D621F739FB00DA11D621F839FA00DF9
:100BE000611D221F749F3327A00D611D231F849F49
:100BF000600D211D822F762F6A2F11249F575040A0
:100C00009AF0F1F088234AF0EE0FFF1FBB1F661F1A
:100C1000771F881F91505040A9F79E3F510580F0E3
:100C20000C9469050C94B4055F3FE4F3983ED4F34B
:100C3000869577956795B795F795E7959F5FC1F787
:100C4000FE2B880F911D9695879597F90895A0E141
:100C5000B0E0EDE2F6E00C94A4097C011B016A010E
:100C6000FC0117821682838181FF44C39E012F5F9E
:100C70003F4F3901F7019381F10193FD859193FF76
:100C800081911F01882309F431C3853239F493FD22
:100C9000859193FF81911F01853239F4B70190E06E
:100CA0000E94C90A56016501E5CF10E0512C912C34
:100CB000FFE1F915D8F08B3279F038F4803279F011
:100CC0008332A1F4F92DF0612EC08D3261F08033B2
:100CD00069F4292D21602DC0392D3260932E892D84
:100CE0008460982E2AC0E92DE86015C097FC2DC0BD
:100CF00020ED280F2A3088F496FE06C03AE0139FB4
:100D0000200D1124122F19C08AE0589E200D1124A5
:100D1000522EE92DE0629E2E10C08E3231F496FCE8
:100D2000E5C2F92DF0649F2E08C08C3621F4292DE0
:100D30002068922E02C0883641F4F10193FD85911E
:100D400093FF81911F018111B3CF9BEB980F9330DB
:100D500020F4992D9061805E07C09BE9980F933035
:100D600008F066C1992D9F7E96FF16E09F73992E1D
:100D7000853619F49064992E08C0863621F4392FEF
:100D80003068932E02C01111115097FE07C01C331A
:100D900050F444244394410E27E00BC0183038F03F
:100DA00027E017E005C027E09CE3492E02C0212F71
:100DB000412C560184E0A80EB11CF60160817181BE
:100DC00082819381042DA3010E94DB096C01F981CA
:100DD000FC87F0FF02C0F3FF06C091FC06C092FE44
:100DE00006C000E205C00DE203C00BE201C000E056
:100DF0008C858C7019F001115AC29BC297FE10C0ED
:100E00004C0CFC85F4FF04C08A81813309F44A94B8
:100E1000141474F528E0241578F588E0482E2CC0C9
:100E200096FC2AC0812F90E08C159D059CF03CEF2C
:100E3000C3163FEFD30674F0892D8068982E0AC040
:100E4000E2E0F0E0EC0FFD1FE10FF11D8081803347
:100E500019F411501111F4CF97FE0EC0442443949D
:100E6000410E812F90E0C816D9062CF41C1904C03D
:100E70004424439401C010E097FE06C01C141D04D6
:100E800034F4C601019605C085E090E002C081E01F
:100E900090E001110196112331F0212F30E02F5FF6
:100EA0003F4F820F931F252D30E08217930714F4D4
:100EB000581A01C0512C892D897049F4552039F0F8
:100EC000B70180E290E00E94C90A5A94F7CF00234C
:100ED00029F0B701802F90E00E94C90A93FC09C055
:100EE000552039F0B70180E390E00E94C90A5A9476
:100EF000F7CF97FE4CC04601D7FE02C0812C912C43
:100F0000C60188199909F301E80FF91FFE87ED87DB
:100F1000960124193109388B2F87012F10E0119584
:100F2000019511093FEF8316930629F4B7018EE26C
:100F300090E00E94C90AC814D9044CF08F859889A2
:100F40008815990524F4ED85FE85818101C080E333
:100F5000F1E08F1A91082D853E852F5F3F4F3E8728
:100F60002D87801691062CF0B70190E00E94C90AE7
:100F7000D9CFC814D90441F49A81963320F495331B
:100F800019F43C8534FF81E3B70190E04EC08A81BB
:100F9000813319F09C859F7E9C87B70190E00E9469
:100FA000C90A111105C094FC18C085E690E017C06D
:100FB000B7018EE290E00E94C90A1E5F82E001E064
:100FC000080FF301E80FF11D8081B70190E00E9446
:100FD000C90A802F0113F3CFE6CF85E490E0B70173
:100FE0000E94C90AD7FC06C0C114D10441F4EC85A3
:100FF000E4FF05C0D194C194D1088DE201C08BE219
:10100000B70190E00E94C90A80E32AE0C216D10429
:101010002CF08F5FFAE0CF1AD108F7CFB70190E03C
:101020000E94C90AB701C601C0960E94C90A54C1EC
:10103000833631F0833779F0833509F056C020C00C
:10104000560132E0A30EB11CF6018081898301E0D4
:1010500010E0630112C05601F2E0AF0EB11CF601C0
:10106000C080D18096FE03C0612F70E002C06FEF98
:101070007FEFC6010E94BE0A8C01F92DFF7714C0D4
:10108000560122E0A20EB11CF601C080D18096FE6E
:1010900003C0612F70E002C06FEF7FEFC6010E94B6
:1010A000B30A8C01F92DF0689F2EF3FD1AC0852D2F
:1010B00090E008171907A8F4B70180E290E00E94B9
:1010C000C90A5A94F4CFF60197FC859197FE819155
:1010D0006F01B70190E00E94C90A51105A94015063
:1010E00011090115110579F7F7C0843611F0893619
:1010F00061F5560197FE09C024E0A20EB11CF6016D
:1011000060817181828193810AC0F2E0AF0EB11CCF
:10111000F60160817181072E000C880B990BF92D67
:10112000FF769F2E97FF09C09095809570956195E9
:101130007F4F8F4F9F4FF0689F2E2AE030E0A30132
:101140000E944B0BC82EC6183FC0092D853721F4CD
:101150000F7E2AE030E01DC0097F8F3691F018F431
:10116000883559F0C3C0803719F0883711F0BEC0F8
:10117000006104FF09C0046007C094FE08C0066057
:1011800006C028E030E005C020E130E002C020E1E8
:1011900032E0560107FF09C084E0A80EB11CF60139
:1011A000608171818281938108C0F2E0AF0EB11C31
:1011B000F6016081718180E090E0A3010E944B0BF9
:1011C000C82EC6180F77902E96FE0BC0092D0E7FE5
:1011D000C11650F494FE0AC092FC08C0092D0E7E80
:1011E00005C0DC2C092D03C0DC2C01C0D12E04FF6E
:1011F0000DC0FE01EC0DF11D8081803311F4097EDC
:1012000009C002FF06C0D394D39404C0802F86780F
:1012100009F0D39403FD11C000FF06C01C2DD514A6
:1012200080F4150D1D190DC0D51458F4B70180E2D6
:1012300090E00E94C90AD394F7CFD51410F45D183A
:1012400001C0512C04FF10C0B70180E390E00E9460
:10125000C90A02FF17C001FD03C088E790E002C081
:1012600088E590E0B7010CC0802F867859F001FF27
:1012700002C08BE201C080E207FD8DE2B70190E081
:101280000E94C90AC11638F4B70180E390E00E94B9
:10129000C90A1150F7CFCA94F301EC0DF11D8081FA
:1012A000B70190E00E94C90AC110F5CF15C0F4E063
:1012B000F51560F584E0581A93FE1FC0011127C090
:1012C0002C8523FF2AC008E610E0392D3071932EBB
:1012D000F8018491811124C0552009F4E4CCB701B0
:1012E00080E290E00E94C90A5A94F6CFF701868105
:1012F000978126C08FEF9FEF23C0B70180E290E077
:101300000E94C90A5A945110F8CFD8CF512CB70176
:10131000802F90E00E94C90AD3CF0CE610E0D5CF11
:1013200091108052B70190E00E94C90A0F5F1F4FD1
:10133000CFCF23E0251510F483E0BDCF512CC0CFD3
:101340006096E2E10C94C0092F923F924F925F9217
:101350006F927F928F929F92AF92BF92CF92DF92C5
:10136000EF92FF920F931F93CF93DF93CDB7DEB72A
:10137000CA1BDB0B0FB6F894DEBF0FBECDBF0994BE
:101380002A88398848885F846E847D848C849B8415
:10139000AA84B984C884DF80EE80FD800C811B8123
:1013A000AA81B981CE0FD11D0FB6F894DEBF0FBE52
:1013B000CDBFED010895283008F027E03327DA018A
:1013C000990F311D87FD916000966105710539F413
:1013D00032602E5F3D9330E32A95E1F708959F3FF9
:1013E00030F080387105610509F03C5F3C5F3D934A
:1013F000913008F08068911DDF93CF931F930F9376
:10140000FF92EF92192F987F9695E92F96959695D2
:10141000E90FFF27E653FF4F99273327EE24FF24D8
:10142000A701E70105900894079428F4360FE71EFA
:10143000F81E491F511D660F771F881F991F0694BC
:10144000A1F70590079428F4E70EF81E491F561FD0
:10145000C11D770F881F991F661F0694A1F705907D
:10146000079428F4F80E491F561FC71FD11D880F77
:10147000991F661F771F0694A1F70590079420F423
:10148000490F561FC71FD81F990F661F771F881F48
:101490000694A9F784911095177041F0D695C795D9
:1014A00057954795F794E7941A95C1F7E0E7F0E070
:1014B00068941590159135916591959105907FE20D
:1014C0007395E118F10A430B560BC90BD009C0F70D
:1014D000E10CF11E431F561FC91FD01D7EF470334F
:1014E00011F48A95E6CFE894015030F0080F0AF421
:1014F0000027021708F4202F2395022F7A3328F0B3
:1015000079E37D932A95E9F710C07D932A9589F6B2
:10151000069497956795379517951794E118F10AF2
:10152000430B560BC90BD00998F023957E91739508
:101530007A3308F070E37C932013B8F77E917061E2
:101540007D9330F0839571E37D9370E32A95E1F705
:101550001124EF90FF900F911F91CF91DF91992768
:1015600087FD90950895FC01059061507040011031
:10157000D8F7809590958E0F9F1F0895FC016150BC
:10158000704001900110D8F7809590958E0F9F1FA5
:1015900008950F931F93CF93DF93FB01238121FDC8
:1015A00003C08FEF9FEF2CC022FF16C046815781EA
:1015B000248135814217530744F4A081B1819D01F4
:1015C0002F5F3F4F318320838C93268137812F5F9C
:1015D0003F4F3783268314C08B01EC01FB0100844D
:1015E000F185E02D0995892BE1F6D80116968D91AC
:1015F0009C911797019617969C938E931697CE0100
:10160000DF91CF911F910F910895A0E0B0E0EBE042
:10161000FBE00C94B409AE014B5F5F4FFA0161919E
:101620007191AF0180915E0290915F020E94270646
:10163000E2E00C94D0090F931F93CF93DF93E091D6
:101640005E02F0915F02238121FF1BC08C01D0E07C
:10165000C0E0F80181918F0160915E0270915F029C
:10166000DB011896ED91FC911997882331F00995CB
:10167000892B79F3DFEFCFEFECCF8AE00995892B47
:1016800019F08FEF9FEF02C08D2F9C2FDF91CF912C
:101690001F910F910895FA01AA27283051F12031A6
:1016A00081F1E8946F936E7F6E5F7F4F8F4F9F4FF6
:1016B000AF4FB1E03ED0B4E03CD0670F781F891F38
:1016C0009A1FA11D680F791F8A1F911DA11D6A0F06
:1016D000711D811D911DA11D20D009F468943F91B9
:1016E0002AE0269F11243019305D3193DEF6CF01B8
:1016F0000895462F4770405D4193B3E00FD0C9F77E
:10170000F6CF462F4F70405D4A3318F0495D31FDEA
:101710004052419302D0A9F7EACFB4E0A69597953D
:10172000879577956795BA95C9F700976105710513
:1017300008959B01AC010A2E06945795479537955D
:101740002795BA95C9F7620F731F841F951FA01DB7
:061750000895F894FFCF9C
:1017560000000002000000009C010000000022437F
:1017660086080C0A0D095C222F0062666E72745C94
:10177600222F0074727565006E756C6C0066616C64
:1017860073650025640025670022005C0041424322
:101796004445464748494A4B4C4D4E4F505152538B
:1017A6005455565758595A61626364656667686945
:1017B6006A6B6C6D6E6F707172737475767778790B
:1017C6007A303132333435363738392B2F002E2ADA
:1017D60051002E2A73007B0025643A0A006D666369
:1017E6003A7B7265713A25642C6375723A25647D7D
:1017F6002C0A7665723A312E332E332C0A0070612C
:1018060072616D3A7B7077723A25662E31572C6677
:101816007265713A25662E30487A2C637572723A73
:1018260025662E306D412C766F6C743A25662E3205
:10183600567D2C0A00636C723A65772C0065773A00
:101846005B636D70725374616C6C65642C626C6F53
:10185600636B6564447563745D007D0056494F4C47
:101866004154494F4E3A204D4F544F52204944203F
:06187600272564270A008B
:00000001FF
